:020000005D2C75
:1000060083120313F801F9011030FC00710DF80D8D
:10001600F90D7408F8027508031C750FF902031828
:100026001B287408F80775080318750FF9070310DD
:0A003600F00DF10DFC0B0928080085
:10004000403083120313F0001F30F100F201F3017E
:020050000800A6
:1000520083120313BC03BC033C08003C031836287C
:10006200BC030000000000002D280000000000007A
:0600720000000000080080
:1000780083120313FB01FA01F901F801A001730DC2
:10008800F80D7408F8027508031C750FF902760854
:10009800031C760FFA027708031C770FFB02000196
:1000A800031C0130A002F30D0730FC00730DF80D9E
:1000B800F90DFA0DFB0DA00D7408731C7528F802D4
:1000C8007508031C750FF9027608031C760FFA02EF
:1000D8007708031C770FFB020001031C0130A00204
:1000E8008628F80775080318750FF90776080318A6
:1000F800760FFA0777080318770FFB070001031834
:100108000130A007F30DFC0B5A28720DF80DF90DFC
:10011800FA0DFB0DA00D7408731CA428F8027508CD
:10012800031C750FF9027608031C760FFA0277088C
:10013800031C770FFB020001031C0130A002B52845
:10014800F80775080318750FF90776080318760F6E
:10015800FA0777080318770FFB0700010318013027
:10016800A007F20D0730FC00720DF80DF90DFA0D1D
:10017800FB0DA00D7408721CD328F8027508031C27
:10018800750FF9027608031C760FFA027708031C2C
:10019800770FFB020001031C0130A002E428F807D6
:1001A80075080318750FF90776080318760FFA070C
:1001B80077080318770FFB07000103180130A00721
:1001C800F20DFC0BB828710DF80DF90DFA0DFB0DA9
:1001D800A00D7408721C0229F8027508031C750F1B
:1001E800F9027608031C760FFA027708031C770FCA
:1001F800FB020001031C0130A0021329F80775084F
:100208000318750FF90776080318760FFA077708A9
:100218000318770FFB07000103180130A007F10D41
:100228000730FC00710DF80DF90DFA0DFB0DA00D4E
:100238007408711C3129F8027508031C750FF9023E
:100248007608031C760FFA027708031C770FFB0267
:100258000001031C0130A0024229F80775080318A1
:10026800750FF90776080318760FFA077708031849
:10027800770FFB07000103180130A007F10DFC0BF5
:100288001629700DF80DF90DFA0DFB0DA00D740867
:10029800711C6029F8027508031C750FF9027608AD
:1002A800031C760FFA027708031C770FFB02000184
:1002B800031C0130A0027129F80775080318750F8F
:1002C800F90776080318760FFA0777080318770FE7
:1002D800FB07000103180130A007F00D0730FC00F0
:1002E800700DF80DF90DFA0DFB0DA00D7408701CBA
:1002F8008F29F8027508031C750FF9027608031C8C
:10030800760FFA027708031C770FFB020001031C23
:100318000130A002A029F80775080318750FF9071E
:1003280076080318760FFA0777080318770FFB0784
:10033800000103180130A007F00DFC0B7429701898
:10034800B3297408F80775080318750FF9077608B4
:100358000318760FFA0777080318770FFB070800CA
:10036800831203132230FC00F801F901FA01FB01A2
:10037800FC030319EA290310FB0CFA0CF90CF80C1E
:10038800F30CF20CF10CF00C031CBC29FC03031950
:10039800DC297408F80775080318750FF90776083B
:1003A8000318760FFA0777080318770FFB07C02999
:1003B8007408F80775080318750FF9077608031805
:0E03C800760FFA0777080318770FFB07080077
:1003D6002020E830F4000330F500F601F701B421DF
:1003E6007008B8007108B9007208BA007308BB003B
:1003F6003008F4003108F500F601F7013C207008DA
:10040600B8007108B9007208BA007308BB0070081A
:10041600F5007108F6007208F7007308F800F80C8A
:10042600F70CF60CF50CF813F80CF70CF60CF50CAB
:10043600F8137508F0007608F1007708F2007808DE
:10044600F300F30CF20CF10CF00CF3137008B4008B
:100456007108B50020203208F4003308F500F601D3
:10046600F701B4213408F9003508FA00FB01FC0154
:100476000330F8007908F4007A08F5007B08F600E6
:100486007C08F700780803194F2AF40DF50DF60DD0
:10049600F70D7410FF3E462A3C207008B80071081C
:1004A600B9007208BA007308BB000A30F4000030C5
:1004B600F5003408F0003508F10003207008B40098
:1004C6007108B50000307102031D6B2A03307002FB
:1004D60003186E2ABB2A290884003B08003C031D2A
:1004E6007E2A3A08003C031D7E2A3908003C031D7B
:1004F6007E2A3808003C0318B92A2A0880043508E1
:100506000319952AB601B70100303702031D8D2A5B
:10051600350836020318952ABC012920B60A0319A4
:10052600B70A872A3408BC0029202B08800535081D
:100536000319AD2AB601B70100303702031DA52AFB
:10054600350836020318AD2ABC012920B60A03195C
:10055600B70A9F2A3408BC0029200130B802031CC0
:10056600B902031CBA02031CBB02702A2B088005C1
:0205760008007B
:100578000B3083120313B0000230B1002E08B20012
:080588002F08B300EB2108006D
:0E0590008312031328088A002708820008003F
:10059E004B3083120313B0000230B1002E08B200AC
:0805AE002F08B300EB21080047
:1005B600E33083120313B0000230B1002E08B200FC
:0805C6002F08B300EB2108002F
:1005CE00033083120313FB004930FC006630FD003C
:1005DE00FD0BEF2AFC0BEF2AFB0BEF2A00000800A5
:1005EE000F3083120313B0000330B1002E08B20097
:0805FE002F08B300EB210800F7
:10060600933083120313B0000230B1002E08B200FB
:080616002F08B300EB210800DE
:10061E00883083120313B0000130B1002E08B200EF
:08062E002F08B300EB210800C6
:10063600ED3083120313B0000130B1002E08B20072
:080646002F08B300EB210800AE
:10064E00493083120313B0000130B1002E08B200FE
:08065E002F08B300EB21080096
:10066600D23083120313B0000130B1002E08B2005D
:080676002F08B300EB2108007E
:10067E00BA3083120313B0000230B1002E08B2005C
:08068E002F08B300EB21080066
:10069600163083120313B0000430B1002E08B200E6
:0806A6002F08B300EB2108004E
:1006AE006E3083120313B0000230B1002E08B20078
:0806BE002F08B300EB21080036
:1006C600CC3083120313B0000130B1002E08B20003
:0806D6002F08B300EB2108001E
:1006DE003E3083120313B0000330B1002E08B20077
:0806EE002F08B300EB21080006
:1006F600831203132108AE002208AF0003238619D4
:10070600872B061E872B882BD52B2108AE002208A7
:10071600AF00F7222108AE002208AF006323861936
:10072600972B061E972B982BD52B2308AE00240853
:10073600AF004B23E7228619A32B061EA32BA42B5F
:10074600D52B2108AE002208AF0063232108AE0096
:100756002208AF004B232308AE002408AF00032372
:100766008619B82B061EB82BB92BD52BE7222108E4
:10077600AE002208AF004B238619C42B061EC42BDD
:10078600C52BD52B2108AE002208AF00CF222508A5
:10079600AE002608AF0003238619D42B061ED42BE1
:0607A600D52BD52B080045
:1007AC00831203132C08A9002D08F1000130F0006E
:1007BC0071080319E52BF00D7010FF3EDF2B70084C
:1007CC00AA00F0097008AB0080302C078400700878
:0A07DC0080058413700880050800F2
:1007E600831203132108AE002208AF000323861DDF
:1007F600FF2B061EFF2B002C502C2108AE002208D2
:10080600AF00CF222308AE002408AF00BC22861D0D
:100816000F2C061E0F2C102C502CE7222108AE00A0
:100826002208AF003323861D1B2C061E1B2C1C2CF6
:10083600502C2108AE002208AF0063232508AE0025
:100846002608AF000F23861D2B2C061E2B2C2C2CC6
:10085600502CE722861D322C061E322C332C502CAF
:100866002308AE002408AF00BC22861D3D2C061EC0
:100876003D2C3E2C502CE722861D442C061E442C73
:10088600452C502C2508AE002608AF000F23861DE8
:0C0896004F2C061E4F2C502C502C08003C
:1008A200C8228A110A128000840AA70A0319A80A18
:0808B200F003031D512C0800A6
:1008BA007D3083120313A100A201FA30A300A40120
:1008CA00F430A5000130A6008316031788018901B8
:1008DA00831287138813F8308316031386000730B0
:1008EA008312AC000330AD00D6238619832C061A76
:1008FA00832C8619832C061A832C7E2C861D8F2C1A
:10090A00061A8F2C861D8F2C061A8F2C8A1500200A
:10091A008A11872C8619992C061E992C8619992CCE
:10092A00061E992C7B23932C861DA32C061EA32C12
:10093A00861DA32C061EA32CF3239D2C7A2CA42CF3
:10100000831203132108AE002208AF008A110323C4
:101010008A152108AE002208AF008A1103238A1521
:101020002108AE002208AF008A1103238A15210887
:10103000AE002208AF008A11BC228A152308AE0038
:101040002408AF008A1103238A15861D2A28061A50
:101050002A282B28412B2508AE002608AF008A112C
:10106000F7228A158A11E7228A158A11E7228A1542
:10107000861D3D28061A3D283E28412B2108AE003A
:101080002208AF008A11BC228A158A11E7228A152C
:101090002108AE002208AF008A110F238A158A1199
:1010A000E7228A152308AE002408AF008A112723FF
:1010B0008A158A11E7228A158A11E7228A15861D68
:1010C0006428061A64286528412B2108AE002208EE
:1010D000AF008A1163238A158A11E7228A15210835
:1010E000AE002208AF008A111B238A158A11E7225D
:1010F0008A15861D7E28061A7E287F28412B210806
:10110000AE002208AF008A1133238A158A11E72224
:101110008A15861D8E28061A8E288F28412B2108B5
:10112000AE002208AF008A1163238A158A11E722D4
:101130008A152308AE002408AF008A110F238A15F0
:101140008A11E7228A158A11E7228A15861DAB28A3
:10115000061AAB28AC28412B2108AE002208AF00AC
:101160008A1103238A158A11E7228A15861DBB2856
:10117000061ABB28BC28412B2308AE002408AF0068
:101180008A11F7228A158A11E7228A152508AE00EE
:101190002608AF008A1163238A158A11E7228A156F
:1011A0008A11E7228A15861DD828061AD828D92838
:1011B000412B2108AE002208AF008A113F238A1577
:1011C0008A11E7228A15861DE828061AE828E928E8
:1011D000412B2308AE002408AF008A11F7228A159C
:1011E0008A11E7228A152108AE002208AF008A1171
:1011F00003238A158A11E7228A15861D0229061AF9
:1012000002290329412B2308AE002408AF008A11CC
:10121000BC228A158A11E7228A152108AE0022080D
:10122000AF008A11CF228A158A11E7228A15861DFE
:101230001C29061A1C291D29412B2108AE00220851
:10124000AF008A111B238A158A11E7228A158A1199
:10125000E7228A15861D2F29061A2F293029412BAE
:101260002108AE002208AF008A11BC228A158A111B
:10127000E7228A15861D3F29061A3F294029412B5E
:101280002108AE002208AF008A110F238A158A11A7
:10129000E7228A152308AE002408AF008A1127230D
:1012A0008A158A11E7228A158A11E7228A152308EE
:1012B000AE002408AF008A1163238A158A11E72241
:1012C0008A152108AE002208AF008A111B238A1557
:1012D0008A11E7228A152108AE002208AF008A1180
:1012E00033238A158A11E7228A152108AE002208C5
:1012F000AF008A1163238A158A11E7228A15230811
:10130000AE002408AF008A110F238A158A11E72244
:101310008A158A11E7228A15861D9129061A9129B4
:101320009229412B2108AE002208AF008A11032325
:101330008A158A11E7228A152308AE002408AF0017
:101340008A11F7228A158A11E7228A152508AE002C
:101350002608AF008A1163238A158A11E7228A15AD
:101360008A11E7228A15861DB829061AB829B929D3
:10137000412B2108AE002208AF008A11F7228A15FE
:101380008A11E7228A15861DC829061AC829C92983
:10139000412B2108AE002208AF008A11DB228A15FA
:1013A0008A11E7228A152108AE002208AF008A11AF
:1013B0003F238A158A11E7228A15861DE229061A1B
:1013C000E229E329412B2108AE002208AF008A114F
:1013D00057238A158A11E7228A152108AE002208B0
:1013E000AF008A1103238A158A11E7228A158A1110
:1013F000E7228A15861DFF29061AFF29002A412B9C
:101400002108AE002208AF008A116F238A158A11C5
:10141000E7228A152108AE002208AF008A11632353
:101420008A158A11E7228A15861D192A061A192A91
:101430001A2A412B2108AE002208AF008A11BC22D3
:101440008A158A11E7228A152108AE002208AF000A
:101450008A1163238A158A11E7228A15861D332A89
:10146000061A332A342A412B2108AE002208AF0085
:101470008A11BC228A158A11E7228A152108AE003A
:101480002208AF008A11CF228A158A11E7228A1515
:101490008A11E7228A15861D502A061A502A512AD7
:1014A000412B2108AE002208AF008A11F7228A15CD
:1014B0008A11E7228A15861D602A061A602A612A87
:1014C000412B2108AE002208AF008A11DB228A15C9
:1014D0008A11E7228A152108AE002208AF008A117E
:1014E0003F238A158A11E7228A15861D7A2A061A51
:1014F0007A2A7B2A412B2108AE002208AF008A11EC
:1015000057238A158A11E7228A152108AE0022087E
:10151000AF008A1103238A158A11E7228A158A11DE
:10152000E7228A15861D972A061A972A982A412BA0
:101530002108AE002208AF008A114B238A158A11B8
:10154000E7228A152108AE002208AF008A114B233A
:101550008A158A11E7228A15861DB12A061AB12A30
:10156000B22A412B2308AE002408AF008A114B2376
:101570008A158A11E7228A158A11E7228A15861DA3
:10158000C42A061AC42AC52A412B2108AE00220803
:10159000AF008A11BC228A158A11E7228A15210818
:1015A000AE002208AF008A1163238A158A11E72250
:1015B0008A15861DDE2A061ADE2ADF2A412B21081B
:1015C000AE002208AF008A11BC228A158A11E722D8
:1015D0008A152108AE002208AF008A11CF228A1591
:1015E0008A11E7228A152308AE002408AF008A1169
:1015F00003238A158A11E7228A158A11E7228A15A0
:10160000861D052B061A052B062B412B2108AE0043
:101610002208AF008A11BC228A158A11E7228A1596
:101620002108AE002208AF008A1163238A158A11AF
:10163000E7228A152108AE002208AF008A11BC22D9
:101640008A158A11E7228A152108AE002208AF0008
:101650008A11CF228A158A11E7228A152308AE0043
:101660002408AF008A1103238A158A11E7228A15FC
:101670008A11E7228A15861D402B061A402B412B22
:04168000412B0800F2
:04400E00F22F000786
:00000001FF
